{
  "_format": "hh-sol-artifact-1",
  "contractName": "WavePortal",
  "sourceName": "contracts/WavePortal.sol",
  "abi": [
    {
      "inputs": [],
      "stateMutability": "payable",
      "type": "constructor"
    },
    {
      "anonymous": false,
      "inputs": [
        {
          "indexed": true,
          "internalType": "address",
          "name": "from",
          "type": "address"
        },
        {
          "indexed": false,
          "internalType": "uint256",
          "name": "timestamp",
          "type": "uint256"
        },
        {
          "indexed": false,
          "internalType": "string",
          "name": "message",
          "type": "string"
        }
      ],
      "name": "NewWave",
      "type": "event"
    },
    {
      "inputs": [],
      "name": "getAllWaves",
      "outputs": [
        {
          "components": [
            {
              "internalType": "address",
              "name": "waver",
              "type": "address"
            },
            {
              "internalType": "string",
              "name": "message",
              "type": "string"
            },
            {
              "internalType": "uint256",
              "name": "timestamp",
              "type": "uint256"
            }
          ],
          "internalType": "struct WavePortal.Wave[]",
          "name": "",
          "type": "tuple[]"
        }
      ],
      "stateMutability": "view",
      "type": "function"
    },
    {
      "inputs": [],
      "name": "getTotalWaves",
      "outputs": [
        {
          "internalType": "uint256",
          "name": "",
          "type": "uint256"
        }
      ],
      "stateMutability": "view",
      "type": "function"
    },
    {
      "inputs": [],
      "name": "getWaveSendersCount",
      "outputs": [
        {
          "internalType": "uint256",
          "name": "",
          "type": "uint256"
        }
      ],
      "stateMutability": "view",
      "type": "function"
    },
    {
      "inputs": [
        {
          "internalType": "address",
          "name": "",
          "type": "address"
        }
      ],
      "name": "lastWavedAt",
      "outputs": [
        {
          "internalType": "uint256",
          "name": "",
          "type": "uint256"
        }
      ],
      "stateMutability": "view",
      "type": "function"
    },
    {
      "inputs": [
        {
          "internalType": "string",
          "name": "_message",
          "type": "string"
        }
      ],
      "name": "wave",
      "outputs": [],
      "stateMutability": "nonpayable",
      "type": "function"
    }
  ],
  "bytecode": "0x60806040526200003360405180606001604052806024815260200162001436602491396200005b60201b620006821760201c565b60644442620000439190620001a8565b6200004f919062000245565b600181905550620002ec565b620000fb8160405160240162000072919062000168565b6040516020818303038152906040527f41304fac000000000000000000000000000000000000000000000000000000007bffffffffffffffffffffffffffffffffffffffffffffffffffffffff19166020820180517bffffffffffffffffffffffffffffffffffffffffffffffffffffffff8381831617835250505050620000fe60201b60201c565b50565b60008151905060006a636f6e736f6c652e6c6f679050602083016000808483855afa5050505050565b600062000134826200018c565b62000140818562000197565b9350620001528185602086016200020f565b6200015d81620002db565b840191505092915050565b6000602082019050818103600083015262000184818462000127565b905092915050565b600081519050919050565b600082825260208201905092915050565b6000620001b58262000205565b9150620001c28362000205565b9250827fffffffffffffffffffffffffffffffffffffffffffffffffffffffffffffffff03821115620001fa57620001f96200027d565b5b828201905092915050565b6000819050919050565b60005b838110156200022f57808201518184015260208101905062000212565b838111156200023f576000848401525b50505050565b6000620002528262000205565b91506200025f8362000205565b925082620002725762000271620002ac565b5b828206905092915050565b7f4e487b7100000000000000000000000000000000000000000000000000000000600052601160045260246000fd5b7f4e487b7100000000000000000000000000000000000000000000000000000000600052601260045260246000fd5b6000601f19601f8301169050919050565b61113a80620002fc6000396000f3fe608060405234801561001057600080fd5b50600436106100575760003560e01c8063449d46c01461005c5780638fefdab4146100785780639a2cdc0814610096578063a42a4663146100b4578063bd43a908146100e4575b600080fd5b610076600480360381019061007191906109c5565b610102565b005b61008061047d565b60405161008d9190610dcc565b60405180910390f35b61009e6104ce565b6040516100ab9190610dcc565b60405180910390f35b6100ce60048036038101906100c9919061099c565b610519565b6040516100db9190610dcc565b60405180910390f35b6100ec610531565b6040516100f99190610cc8565b60405180910390f35b42610384600460003373ffffffffffffffffffffffffffffffffffffffff1673ffffffffffffffffffffffffffffffffffffffff168152602001908152602001600020546101509190610ee9565b10610190576040517f08c379a000000000000000000000000000000000000000000000000000000000815260040161018790610dac565b60405180910390fd5b42600460003373ffffffffffffffffffffffffffffffffffffffff1673ffffffffffffffffffffffffffffffffffffffff1681526020019081526020016000208190555060016000808282546101e69190610ee9565b92505081905550600360405180606001604052803373ffffffffffffffffffffffffffffffffffffffff16815260200183815260200142815250908060018154018082558091505060019003906000526020600020906003020160009091909190915060008201518160000160006101000a81548173ffffffffffffffffffffffffffffffffffffffff021916908373ffffffffffffffffffffffffffffffffffffffff16021790555060208201518160010190805190602001906102ac92919061087c565b50604082015181600201555050606460015442446102ca9190610ee9565b6102d49190610ee9565b6102de9190610fef565b60018190555060326001541161042a5761032d6040518060400160405280600781526020017f257320776f6e21000000000000000000000000000000000000000000000000008152503361071b565b6000655af3107a400090504781111561037b576040517f08c379a000000000000000000000000000000000000000000000000000000000815260040161037290610d8c565b60405180910390fd5b60003373ffffffffffffffffffffffffffffffffffffffff16826040516103a190610cb3565b60006040518083038185875af1925050503d80600081146103de576040519150601f19603f3d011682016040523d82523d6000602084013e6103e3565b606091505b5050905080610427576040517f08c379a000000000000000000000000000000000000000000000000000000000815260040161041e90610d6c565b60405180910390fd5b50505b3373ffffffffffffffffffffffffffffffffffffffff167f5f7e16dc676677766a70e9c5628aa6c54ddb8b6e5188e2ae1e1f17f1ffbea7164283604051610472929190610de7565b60405180910390a250565b60006104c36040518060400160405280601981526020017f5765206861766520256420746f74616c2073656e6465727321000000000000008152506002805490506107b7565b600280549050905090565b60006105116040518060400160405280601781526020017f5765206861766520256420746f74616c207761766573210000000000000000008152506000546107b7565b600054905090565b60046020528060005260406000206000915090505481565b60606003805480602002602001604051908101604052809291908181526020016000905b8282101561067957838290600052602060002090600302016040518060600160405290816000820160009054906101000a900473ffffffffffffffffffffffffffffffffffffffff1673ffffffffffffffffffffffffffffffffffffffff1673ffffffffffffffffffffffffffffffffffffffff1681526020016001820180546105de90610fbd565b80601f016020809104026020016040519081016040528092919081815260200182805461060a90610fbd565b80156106575780601f1061062c57610100808354040283529160200191610657565b820191906000526020600020905b81548152906001019060200180831161063a57829003601f168201915b5050505050815260200160028201548152505081526020019060010190610555565b50505050905090565b610718816040516024016106969190610cea565b6040516020818303038152906040527f41304fac000000000000000000000000000000000000000000000000000000007bffffffffffffffffffffffffffffffffffffffffffffffffffffffff19166020820180517bffffffffffffffffffffffffffffffffffffffffffffffffffffffff8381831617835250505050610853565b50565b6107b38282604051602401610731929190610d0c565b6040516020818303038152906040527f319af333000000000000000000000000000000000000000000000000000000007bffffffffffffffffffffffffffffffffffffffffffffffffffffffff19166020820180517bffffffffffffffffffffffffffffffffffffffffffffffffffffffff8381831617835250505050610853565b5050565b61084f82826040516024016107cd929190610d3c565b6040516020818303038152906040527f9710a9d0000000000000000000000000000000000000000000000000000000007bffffffffffffffffffffffffffffffffffffffffffffffffffffffff19166020820180517bffffffffffffffffffffffffffffffffffffffffffffffffffffffff8381831617835250505050610853565b5050565b60008151905060006a636f6e736f6c652e6c6f679050602083016000808483855afa5050505050565b82805461088890610fbd565b90600052602060002090601f0160209004810192826108aa57600085556108f1565b82601f106108c357805160ff19168380011785556108f1565b828001600101855582156108f1579182015b828111156108f05782518255916020019190600101906108d5565b5b5090506108fe9190610902565b5090565b5b8082111561091b576000816000905550600101610903565b5090565b600061093261092d84610e48565b610e17565b90508281526020810184848401111561094a57600080fd5b610955848285610f7b565b509392505050565b60008135905061096c816110ed565b92915050565b600082601f83011261098357600080fd5b813561099384826020860161091f565b91505092915050565b6000602082840312156109ae57600080fd5b60006109bc8482850161095d565b91505092915050565b6000602082840312156109d757600080fd5b600082013567ffffffffffffffff8111156109f157600080fd5b6109fd84828501610972565b91505092915050565b6000610a128383610c45565b905092915050565b610a2381610f3f565b82525050565b610a3281610f3f565b82525050565b6000610a4382610e88565b610a4d8185610eab565b935083602082028501610a5f85610e78565b8060005b85811015610a9b5784840389528151610a7c8582610a06565b9450610a8783610e9e565b925060208a01995050600181019050610a63565b50829750879550505050505092915050565b6000610ab882610e93565b610ac28185610ec7565b9350610ad2818560208601610f8a565b610adb816110dc565b840191505092915050565b6000610af182610e93565b610afb8185610ed8565b9350610b0b818560208601610f8a565b610b14816110dc565b840191505092915050565b6000610b2c602783610ed8565b91507f4661696c656420746f207769746864726177206d6f6e65792066726f6d20636f60008301527f6e74726163742e000000000000000000000000000000000000000000000000006020830152604082019050919050565b6000610b92603583610ed8565b91507f547279696e6720746f207769746864726177206d6f7265206d6f6e657920746860008301527f616e207468657920636f6e7472616374206861732e00000000000000000000006020830152604082019050919050565b6000610bf8600083610ebc565b9150600082019050919050565b6000610c12600883610ed8565b91507f576169742031356d0000000000000000000000000000000000000000000000006000830152602082019050919050565b6000606083016000830151610c5d6000860182610a1a565b5060208301518482036020860152610c758282610aad565b9150506040830151610c8a6040860182610c95565b508091505092915050565b610c9e81610f71565b82525050565b610cad81610f71565b82525050565b6000610cbe82610beb565b9150819050919050565b60006020820190508181036000830152610ce28184610a38565b905092915050565b60006020820190508181036000830152610d048184610ae6565b905092915050565b60006040820190508181036000830152610d268185610ae6565b9050610d356020830184610a29565b9392505050565b60006040820190508181036000830152610d568185610ae6565b9050610d656020830184610ca4565b9392505050565b60006020820190508181036000830152610d8581610b1f565b9050919050565b60006020820190508181036000830152610da581610b85565b9050919050565b60006020820190508181036000830152610dc581610c05565b9050919050565b6000602082019050610de16000830184610ca4565b92915050565b6000604082019050610dfc6000830185610ca4565b8181036020830152610e0e8184610ae6565b90509392505050565b6000604051905081810181811067ffffffffffffffff82111715610e3e57610e3d6110ad565b5b8060405250919050565b600067ffffffffffffffff821115610e6357610e626110ad565b5b601f19601f8301169050602081019050919050565b6000819050602082019050919050565b600081519050919050565b600081519050919050565b6000602082019050919050565b600082825260208201905092915050565b600081905092915050565b600082825260208201905092915050565b600082825260208201905092915050565b6000610ef482610f71565b9150610eff83610f71565b9250827fffffffffffffffffffffffffffffffffffffffffffffffffffffffffffffffff03821115610f3457610f33611020565b5b828201905092915050565b6000610f4a82610f51565b9050919050565b600073ffffffffffffffffffffffffffffffffffffffff82169050919050565b6000819050919050565b82818337600083830152505050565b60005b83811015610fa8578082015181840152602081019050610f8d565b83811115610fb7576000848401525b50505050565b60006002820490506001821680610fd557607f821691505b60208210811415610fe957610fe861107e565b5b50919050565b6000610ffa82610f71565b915061100583610f71565b9250826110155761101461104f565b5b828206905092915050565b7f4e487b7100000000000000000000000000000000000000000000000000000000600052601160045260246000fd5b7f4e487b7100000000000000000000000000000000000000000000000000000000600052601260045260246000fd5b7f4e487b7100000000000000000000000000000000000000000000000000000000600052602260045260246000fd5b7f4e487b7100000000000000000000000000000000000000000000000000000000600052604160045260246000fd5b6000601f19601f8301169050919050565b6110f681610f3f565b811461110157600080fd5b5056fea26469706673582212203417cd5717f46700b79ee2d77f3cdc47cff9db5963fed4e38fab00a42782016e64736f6c63430008000033596f20796f2c204920616d206120636f6e747261637420616d204920616d20736d617274",
  "linkReferences": {},
  "deployedLinkReferences": {}
}