{
  "_format": "hh-sol-artifact-1",
  "contractName": "WavePortal",
  "sourceName": "contracts/WavePortal.sol",
  "abi": [
    {
      "inputs": [],
      "stateMutability": "payable",
      "type": "constructor"
    },
    {
      "anonymous": false,
      "inputs": [
        {
          "indexed": true,
          "internalType": "address",
          "name": "from",
          "type": "address"
        },
        {
          "indexed": false,
          "internalType": "uint256",
          "name": "timestamp",
          "type": "uint256"
        },
        {
          "indexed": false,
          "internalType": "string",
          "name": "message",
          "type": "string"
        }
      ],
      "name": "NewWave",
      "type": "event"
    },
    {
      "inputs": [],
      "name": "getAllWaves",
      "outputs": [
        {
          "components": [
            {
              "internalType": "address",
              "name": "waver",
              "type": "address"
            },
            {
              "internalType": "string",
              "name": "message",
              "type": "string"
            },
            {
              "internalType": "uint256",
              "name": "timestamp",
              "type": "uint256"
            }
          ],
          "internalType": "struct WavePortal.Wave[]",
          "name": "",
          "type": "tuple[]"
        }
      ],
      "stateMutability": "view",
      "type": "function"
    },
    {
      "inputs": [],
      "name": "getTotalWaves",
      "outputs": [
        {
          "internalType": "uint256",
          "name": "",
          "type": "uint256"
        }
      ],
      "stateMutability": "view",
      "type": "function"
    },
    {
      "inputs": [],
      "name": "getWaveSendersCount",
      "outputs": [
        {
          "internalType": "uint256",
          "name": "",
          "type": "uint256"
        }
      ],
      "stateMutability": "view",
      "type": "function"
    },
    {
      "inputs": [
        {
          "internalType": "string",
          "name": "_message",
          "type": "string"
        }
      ],
      "name": "wave",
      "outputs": [],
      "stateMutability": "nonpayable",
      "type": "function"
    }
  ],
  "bytecode": "0x60806040526200003360405180606001604052806024815260200162000f8d602491396200003960201b620004e81760201c565b620001cd565b620000d98160405160240162000050919062000146565b6040516020818303038152906040527f41304fac000000000000000000000000000000000000000000000000000000007bffffffffffffffffffffffffffffffffffffffffffffffffffffffff19166020820180517bffffffffffffffffffffffffffffffffffffffffffffffffffffffff8381831617835250505050620000dc60201b60201c565b50565b60008151905060006a636f6e736f6c652e6c6f679050602083016000808483855afa5050505050565b600062000112826200016a565b6200011e818562000175565b93506200013081856020860162000186565b6200013b81620001bc565b840191505092915050565b6000602082019050818103600083015262000162818462000105565b905092915050565b600081519050919050565b600082825260208201905092915050565b60005b83811015620001a657808201518184015260208101905062000189565b83811115620001b6576000848401525b50505050565b6000601f19601f8301169050919050565b610db080620001dd6000396000f3fe608060405234801561001057600080fd5b506004361061004c5760003560e01c8063449d46c0146100515780638fefdab41461006d5780639a2cdc081461008b578063bd43a908146100a9575b600080fd5b61006b60048036038101906100669190610751565b6100c7565b005b6100756102fb565b6040516100829190610ab9565b60405180910390f35b61009361034c565b6040516100a09190610ab9565b60405180910390f35b6100b1610397565b6040516100be9190610a05565b60405180910390f35b60016000808282546100d99190610bd6565b92505081905550600260405180606001604052803373ffffffffffffffffffffffffffffffffffffffff16815260200183815260200142815250908060018154018082558091505060019003906000526020600020906003020160009091909190915060008201518160000160006101000a81548173ffffffffffffffffffffffffffffffffffffffff021916908373ffffffffffffffffffffffffffffffffffffffff160217905550602082015181600101908051906020019061019f929190610646565b506040820151816002015550503373ffffffffffffffffffffffffffffffffffffffff167f5f7e16dc676677766a70e9c5628aa6c54ddb8b6e5188e2ae1e1f17f1ffbea71642836040516101f4929190610ad4565b60405180910390a26000655af3107a400090504781111561024a576040517f08c379a000000000000000000000000000000000000000000000000000000000815260040161024190610a79565b60405180910390fd5b60003373ffffffffffffffffffffffffffffffffffffffff1682604051610270906109f0565b60006040518083038185875af1925050503d80600081146102ad576040519150601f19603f3d011682016040523d82523d6000602084013e6102b2565b606091505b50509050806102f6576040517f08c379a00000000000000000000000000000000000000000000000000000000081526004016102ed90610a99565b60405180910390fd5b505050565b60006103416040518060400160405280601981526020017f5765206861766520256420746f74616c2073656e646572732100000000000000815250600180549050610581565b600180549050905090565b600061038f6040518060400160405280601781526020017f5765206861766520256420746f74616c20776176657321000000000000000000815250600054610581565b600054905090565b60606002805480602002602001604051908101604052809291908181526020016000905b828210156104df57838290600052602060002090600302016040518060600160405290816000820160009054906101000a900473ffffffffffffffffffffffffffffffffffffffff1673ffffffffffffffffffffffffffffffffffffffff1673ffffffffffffffffffffffffffffffffffffffff16815260200160018201805461044490610caa565b80601f016020809104026020016040519081016040528092919081815260200182805461047090610caa565b80156104bd5780601f10610492576101008083540402835291602001916104bd565b820191906000526020600020905b8154815290600101906020018083116104a057829003601f168201915b50505050508152602001600282015481525050815260200190600101906103bb565b50505050905090565b61057e816040516024016104fc9190610a27565b6040516020818303038152906040527f41304fac000000000000000000000000000000000000000000000000000000007bffffffffffffffffffffffffffffffffffffffffffffffffffffffff19166020820180517bffffffffffffffffffffffffffffffffffffffffffffffffffffffff838183161783525050505061061d565b50565b6106198282604051602401610597929190610a49565b6040516020818303038152906040527f9710a9d0000000000000000000000000000000000000000000000000000000007bffffffffffffffffffffffffffffffffffffffffffffffffffffffff19166020820180517bffffffffffffffffffffffffffffffffffffffffffffffffffffffff838183161783525050505061061d565b5050565b60008151905060006a636f6e736f6c652e6c6f679050602083016000808483855afa5050505050565b82805461065290610caa565b90600052602060002090601f01602090048101928261067457600085556106bb565b82601f1061068d57805160ff19168380011785556106bb565b828001600101855582156106bb579182015b828111156106ba57825182559160200191906001019061069f565b5b5090506106c891906106cc565b5090565b5b808211156106e55760008160009055506001016106cd565b5090565b60006106fc6106f784610b35565b610b04565b90508281526020810184848401111561071457600080fd5b61071f848285610c68565b509392505050565b600082601f83011261073857600080fd5b81356107488482602086016106e9565b91505092915050565b60006020828403121561076357600080fd5b600082013567ffffffffffffffff81111561077d57600080fd5b61078984828501610727565b91505092915050565b600061079e8383610982565b905092915050565b6107af81610c2c565b82525050565b60006107c082610b75565b6107ca8185610b98565b9350836020820285016107dc85610b65565b8060005b8581101561081857848403895281516107f98582610792565b945061080483610b8b565b925060208a019950506001810190506107e0565b50829750879550505050505092915050565b600061083582610b80565b61083f8185610bb4565b935061084f818560208601610c77565b61085881610d69565b840191505092915050565b600061086e82610b80565b6108788185610bc5565b9350610888818560208601610c77565b61089181610d69565b840191505092915050565b60006108a9603483610bc5565b91507f547279696e6720746f207769746864726177206d6f7265206d6f6e657920746860008301527f616e2074686520636f6e7472616374206861732e0000000000000000000000006020830152604082019050919050565b600061090f602783610bc5565b91507f4661696c656420746f207769746864726177206d6f6e65792066726f6d20636f60008301527f6e74726163742e000000000000000000000000000000000000000000000000006020830152604082019050919050565b6000610975600083610ba9565b9150600082019050919050565b600060608301600083015161099a60008601826107a6565b50602083015184820360208601526109b2828261082a565b91505060408301516109c760408601826109d2565b508091505092915050565b6109db81610c5e565b82525050565b6109ea81610c5e565b82525050565b60006109fb82610968565b9150819050919050565b60006020820190508181036000830152610a1f81846107b5565b905092915050565b60006020820190508181036000830152610a418184610863565b905092915050565b60006040820190508181036000830152610a638185610863565b9050610a7260208301846109e1565b9392505050565b60006020820190508181036000830152610a928161089c565b9050919050565b60006020820190508181036000830152610ab281610902565b9050919050565b6000602082019050610ace60008301846109e1565b92915050565b6000604082019050610ae960008301856109e1565b8181036020830152610afb8184610863565b90509392505050565b6000604051905081810181811067ffffffffffffffff82111715610b2b57610b2a610d3a565b5b8060405250919050565b600067ffffffffffffffff821115610b5057610b4f610d3a565b5b601f19601f8301169050602081019050919050565b6000819050602082019050919050565b600081519050919050565b600081519050919050565b6000602082019050919050565b600082825260208201905092915050565b600081905092915050565b600082825260208201905092915050565b600082825260208201905092915050565b6000610be182610c5e565b9150610bec83610c5e565b9250827fffffffffffffffffffffffffffffffffffffffffffffffffffffffffffffffff03821115610c2157610c20610cdc565b5b828201905092915050565b6000610c3782610c3e565b9050919050565b600073ffffffffffffffffffffffffffffffffffffffff82169050919050565b6000819050919050565b82818337600083830152505050565b60005b83811015610c95578082015181840152602081019050610c7a565b83811115610ca4576000848401525b50505050565b60006002820490506001821680610cc257607f821691505b60208210811415610cd657610cd5610d0b565b5b50919050565b7f4e487b7100000000000000000000000000000000000000000000000000000000600052601160045260246000fd5b7f4e487b7100000000000000000000000000000000000000000000000000000000600052602260045260246000fd5b7f4e487b7100000000000000000000000000000000000000000000000000000000600052604160045260246000fd5b6000601f19601f830116905091905056fea2646970667358221220273231684a153c45d2e0156014aef605a961e0b004c7ceda08381d7cf32c051e64736f6c63430008000033596f20796f2c204920616d206120636f6e747261637420616d204920616d20736d617274",
  "linkReferences": {},
  "deployedLinkReferences": {}
}