{
  "_format": "hh-sol-artifact-1",
  "contractName": "WavePortal",
  "sourceName": "contracts/WavePortal.sol",
  "abi": [
    {
      "inputs": [],
      "stateMutability": "nonpayable",
      "type": "constructor"
    },
    {
      "anonymous": false,
      "inputs": [
        {
          "indexed": true,
          "internalType": "address",
          "name": "from",
          "type": "address"
        },
        {
          "indexed": false,
          "internalType": "uint256",
          "name": "timestamp",
          "type": "uint256"
        },
        {
          "indexed": false,
          "internalType": "string",
          "name": "message",
          "type": "string"
        }
      ],
      "name": "NewWave",
      "type": "event"
    },
    {
      "inputs": [],
      "name": "getAllWaves",
      "outputs": [
        {
          "components": [
            {
              "internalType": "address",
              "name": "waver",
              "type": "address"
            },
            {
              "internalType": "string",
              "name": "message",
              "type": "string"
            },
            {
              "internalType": "uint256",
              "name": "timestamp",
              "type": "uint256"
            }
          ],
          "internalType": "struct WavePortal.Wave[]",
          "name": "",
          "type": "tuple[]"
        }
      ],
      "stateMutability": "view",
      "type": "function"
    },
    {
      "inputs": [],
      "name": "getTotalWaves",
      "outputs": [
        {
          "internalType": "uint256",
          "name": "",
          "type": "uint256"
        }
      ],
      "stateMutability": "view",
      "type": "function"
    },
    {
      "inputs": [],
      "name": "getWaveSendersCount",
      "outputs": [
        {
          "internalType": "uint256",
          "name": "",
          "type": "uint256"
        }
      ],
      "stateMutability": "view",
      "type": "function"
    },
    {
      "inputs": [
        {
          "internalType": "string",
          "name": "_message",
          "type": "string"
        }
      ],
      "name": "wave",
      "outputs": [],
      "stateMutability": "nonpayable",
      "type": "function"
    }
  ],
  "bytecode": "0x60806040523480156200001157600080fd5b506200004160405180606001604052806024815260200162000ed6602491396200004760201b6200048e1760201c565b620001db565b620000e7816040516024016200005e919062000154565b6040516020818303038152906040527f41304fac000000000000000000000000000000000000000000000000000000007bffffffffffffffffffffffffffffffffffffffffffffffffffffffff19166020820180517bffffffffffffffffffffffffffffffffffffffffffffffffffffffff8381831617835250505050620000ea60201b60201c565b50565b60008151905060006a636f6e736f6c652e6c6f679050602083016000808483855afa5050505050565b6000620001208262000178565b6200012c818562000183565b93506200013e81856020860162000194565b6200014981620001ca565b840191505092915050565b6000602082019050818103600083015262000170818462000113565b905092915050565b600081519050919050565b600082825260208201905092915050565b60005b83811015620001b457808201518184015260208101905062000197565b83811115620001c4576000848401525b50505050565b6000601f19601f8301169050919050565b610ceb80620001eb6000396000f3fe608060405234801561001057600080fd5b506004361061004c5760003560e01c8063449d46c0146100515780638fefdab41461006d5780639a2cdc081461008b578063bd43a908146100a9575b600080fd5b61006b60048036038101906100669190610793565b6100c7565b005b6100756102a1565b60405161008291906109ff565b60405180910390f35b6100936102f2565b6040516100a091906109ff565b60405180910390f35b6100b161033d565b6040516100be919061095b565b60405180910390f35b60016000808282546100d99190610b11565b925050819055506001339080600181540180825580915050600190039060005260206000200160009091909190916101000a81548173ffffffffffffffffffffffffffffffffffffffff021916908373ffffffffffffffffffffffffffffffffffffffff160217905550600260405180606001604052803373ffffffffffffffffffffffffffffffffffffffff16815260200183815260200142815250908060018154018082558091505060019003906000526020600020906003020160009091909190915060008201518160000160006101000a81548173ffffffffffffffffffffffffffffffffffffffff021916908373ffffffffffffffffffffffffffffffffffffffff1602179055506020820151816001019080519060200190610202929190610688565b506040820151816002015550503373ffffffffffffffffffffffffffffffffffffffff167f5f7e16dc676677766a70e9c5628aa6c54ddb8b6e5188e2ae1e1f17f1ffbea7164283604051610257929190610a1a565b60405180910390a261029e6040518060400160405280600d81526020017f257320686173207761766564210000000000000000000000000000000000000081525033610527565b50565b60006102e76040518060400160405280601981526020017f5765206861766520256420746f74616c2073656e6465727321000000000000008152506001805490506105c3565b600180549050905090565b60006103356040518060400160405280601781526020017f5765206861766520256420746f74616c207761766573210000000000000000008152506000546105c3565b600054905090565b60606002805480602002602001604051908101604052809291908181526020016000905b8282101561048557838290600052602060002090600302016040518060600160405290816000820160009054906101000a900473ffffffffffffffffffffffffffffffffffffffff1673ffffffffffffffffffffffffffffffffffffffff1673ffffffffffffffffffffffffffffffffffffffff1681526020016001820180546103ea90610be5565b80601f016020809104026020016040519081016040528092919081815260200182805461041690610be5565b80156104635780601f1061043857610100808354040283529160200191610463565b820191906000526020600020905b81548152906001019060200180831161044657829003601f168201915b5050505050815260200160028201548152505081526020019060010190610361565b50505050905090565b610524816040516024016104a2919061097d565b6040516020818303038152906040527f41304fac000000000000000000000000000000000000000000000000000000007bffffffffffffffffffffffffffffffffffffffffffffffffffffffff19166020820180517bffffffffffffffffffffffffffffffffffffffffffffffffffffffff838183161783525050505061065f565b50565b6105bf828260405160240161053d92919061099f565b6040516020818303038152906040527f319af333000000000000000000000000000000000000000000000000000000007bffffffffffffffffffffffffffffffffffffffffffffffffffffffff19166020820180517bffffffffffffffffffffffffffffffffffffffffffffffffffffffff838183161783525050505061065f565b5050565b61065b82826040516024016105d99291906109cf565b6040516020818303038152906040527f9710a9d0000000000000000000000000000000000000000000000000000000007bffffffffffffffffffffffffffffffffffffffffffffffffffffffff19166020820180517bffffffffffffffffffffffffffffffffffffffffffffffffffffffff838183161783525050505061065f565b5050565b60008151905060006a636f6e736f6c652e6c6f679050602083016000808483855afa5050505050565b82805461069490610be5565b90600052602060002090601f0160209004810192826106b657600085556106fd565b82601f106106cf57805160ff19168380011785556106fd565b828001600101855582156106fd579182015b828111156106fc5782518255916020019190600101906106e1565b5b50905061070a919061070e565b5090565b5b8082111561072757600081600090555060010161070f565b5090565b600061073e61073984610a7b565b610a4a565b90508281526020810184848401111561075657600080fd5b610761848285610ba3565b509392505050565b600082601f83011261077a57600080fd5b813561078a84826020860161072b565b91505092915050565b6000602082840312156107a557600080fd5b600082013567ffffffffffffffff8111156107bf57600080fd5b6107cb84828501610769565b91505092915050565b60006107e083836108ed565b905092915050565b6107f181610b67565b82525050565b61080081610b67565b82525050565b600061081182610abb565b61081b8185610ade565b93508360208202850161082d85610aab565b8060005b85811015610869578484038952815161084a85826107d4565b945061085583610ad1565b925060208a01995050600181019050610831565b50829750879550505050505092915050565b600061088682610ac6565b6108908185610aef565b93506108a0818560208601610bb2565b6108a981610ca4565b840191505092915050565b60006108bf82610ac6565b6108c98185610b00565b93506108d9818560208601610bb2565b6108e281610ca4565b840191505092915050565b600060608301600083015161090560008601826107e8565b506020830151848203602086015261091d828261087b565b9150506040830151610932604086018261093d565b508091505092915050565b61094681610b99565b82525050565b61095581610b99565b82525050565b600060208201905081810360008301526109758184610806565b905092915050565b6000602082019050818103600083015261099781846108b4565b905092915050565b600060408201905081810360008301526109b981856108b4565b90506109c860208301846107f7565b9392505050565b600060408201905081810360008301526109e981856108b4565b90506109f8602083018461094c565b9392505050565b6000602082019050610a14600083018461094c565b92915050565b6000604082019050610a2f600083018561094c565b8181036020830152610a4181846108b4565b90509392505050565b6000604051905081810181811067ffffffffffffffff82111715610a7157610a70610c75565b5b8060405250919050565b600067ffffffffffffffff821115610a9657610a95610c75565b5b601f19601f8301169050602081019050919050565b6000819050602082019050919050565b600081519050919050565b600081519050919050565b6000602082019050919050565b600082825260208201905092915050565b600082825260208201905092915050565b600082825260208201905092915050565b6000610b1c82610b99565b9150610b2783610b99565b9250827fffffffffffffffffffffffffffffffffffffffffffffffffffffffffffffffff03821115610b5c57610b5b610c17565b5b828201905092915050565b6000610b7282610b79565b9050919050565b600073ffffffffffffffffffffffffffffffffffffffff82169050919050565b6000819050919050565b82818337600083830152505050565b60005b83811015610bd0578082015181840152602081019050610bb5565b83811115610bdf576000848401525b50505050565b60006002820490506001821680610bfd57607f821691505b60208210811415610c1157610c10610c46565b5b50919050565b7f4e487b7100000000000000000000000000000000000000000000000000000000600052601160045260246000fd5b7f4e487b7100000000000000000000000000000000000000000000000000000000600052602260045260246000fd5b7f4e487b7100000000000000000000000000000000000000000000000000000000600052604160045260246000fd5b6000601f19601f830116905091905056fea2646970667358221220e090c8bcfba31873ff40f81dce9ba96fdfb5862d8d9ac63ae3d40b3395627e6664736f6c63430008000033596f20796f2c204920616d206120636f6e747261637420616d204920616d20736d617274",
  "linkReferences": {},
  "deployedLinkReferences": {}
}